S018000030305F4C45445F4F6E5F536F757263652E737265638C
S113000070240020CD010000C9010000C9010000D6
S113001000000000000000000000000000000000DC
S1130020000000000000000000000000C901000002
S11300300000000000000000C9010000C901000028
S1130040C9010000C9010000C9010000C901000084
S1130050C9010000C9010000C9010000C901000074
S1130060C9010000C9010000C9010000C901000064
S1130070C9010000C9010000C9010000C901000054
S1130080C9010000C9010000C9010000C901000044
S1130090C9010000C9010000C9010000C901000034
S11300A0C9010000C9010000C9010000C901000024
S11300B00000000010B5064C2378002B07D1054B37
S11300C0002B02D0044800E000BF0123237010BDC0
S11300D02C040020000000008C040000084B10B524
S11300E0002B03D00749084800E000BF0748036815
S11300F0002B00D110BD064B002BFBD09847F9E72D
S113010000000000300400208C0400008C04000077
S11301100000000010B5014B984710BD25010000F8
S1130120FEE7000030B5214B5C215A5C01200243FC
S11301305A543E22995C0F25A9430724214399541C
S11301401232995C0143995438215A5CAA432243E0
S11301505A5417315A5C02435A541839585C0F22C6
S11301600240702002435A54114B9A8A04210A43D4
S11301709A829A8A08210A439A829A8A02210A4315
S11301809A820C4A0221FF3191600B495160196A2D
S11301900A4801401962196A02200143196253682E
S11301A007491940074B0B43536030BD00440041DD
S11301B000080040000C004001050900FFFCFFFF9F
S11301C0F0E0C0FF00060900FEE70000F8B52A4A87
S11301D02A4B9A4211D01A00294B9A420DD2294A2D
S11301E003339B1A9B0801339B00002223482249B6
S11301F08C58845004329A42FAD1234A234B9A42AF
S11302000AD2D34321495B1803218B4304339B183F
S1130210002102C29342FCD11D4AFF211D4B8B4396
S11302209360FD3990235B001B4AD1501B4AD3785D
S11302300325AB4302242343D370D3780C27BB4359
S113024008263343D370164B987B302290432022E8
S113025010439873997BB943314399739A7BAA43AA
S113026022439A730F4A536880210B4353600E4B09
S113027098470E4B9847FEE78C04000000000020CE
S11302802C040020040000202C0400206C04002016
S113029000ED00E00000000000700041005000414B
S11302A00048004100400041C5020000B1020000C6
S11302B010B5024B9847024CA047FDE7150100001A
S11302C02101000070B50D4E0D4D0024AD1BAD1085
S11302D005D0A300F35801349847A542F9D100F0A2
S11302E0C3F8084E084D0024AD1BAD1005D0A30083
S11302F0F35801349847A542F9D170BD7404000045
S113030074040000740400007C040000034B10B566
S1130310002B02D0024800F005F810BD00000000D8
S11303203503000010B5010000230022002000F076
S11303301FF810BD70B5094B094CE41AA41009D07C
S1130340084AA518AD00ED182B68013C9847043DF8
S1130350002CF9D100F092F870BDC046880400006A
S11303608C040000FFFFFF3F7047C0467047C04643
S1130370F0B54E464546DE465746E0B5364D83B0A9
S11303800600286898460F009146FFF7EDFF334BAF
S11303901C68A4235B00E058002852D043681F2B3C
S11303A013DC5A1C0192002E28D1019A02339B00BF
S11303B042601F502868FFF7D9FF002003B03CBCFF
S11303C090469946A246AB46F0BD254B002B3DD046
S11303D0C820400000E000BF002837D0A42200233A
S11303E05200A15843600160A0504032835004324F
S11303F08350013301930023002ED6D09A009246F5
S113040082444A46882154466250C422520091468E
S113041081444A468739994012688B460A43944678
S11304204A4661461160842241465200A150022E80
S1130430BBD102005C468D32FF3211680C4314605C
S1130440B3E720004D30FF30E050A7E72868FFF7FE
S11304508DFF01204042B1E728040020640400001D
S11304600000000000000020F8B5C046F8BC08BC3D
S11304709E4670470D030000DD000000F8B5C0463D
S10F0480F8BC08BC9E467047B5000000A4
S113048C00000000EC02002054030020BC030020F8
S113049C000000000000000000000000000000004C
S11304AC000000000000000000000000000000003C
S11304BC000000000000000000000000000000002C
S11304CC000000000000000000000000000000001C
S11304DC000000000000000000000000000000000C
S11304EC00000000000000000000000000000000FC
S11304FC00000000000000000000000000000000EC
S113050C00000000000000000000000000000000DB
S113051C00000000000000000000000000000000CB
S113052C00000000000000000100000000000000BA
S113053C0E33CDAB34126DE6ECDE05000B0000007F
S113054C000000000000000000000000000000009B
S113055C000000000000000000000000000000008B
S113056C000000000000000000000000000000007B
S113057C000000000000000000000000000000006B
S10F08AC000000000000000048040020D0
S9030000FC
